:020000040800F2
:1000000000000A2019580008C94B0008D14B00080D
:10001000594C0008AD4C0008014D00086958000813
:10002000000000000000000000000000554D000826
:10003000634D000800000000714D00087F4D00086E
:1000400069580008695800088D4D00086958000873
:10005000695800086958000869580008695800087C
:10006000695800086958000869580008894E000856
:10007000695800086958000869580008695800085C
:10008000695800086958000869580008A94D000817
:10009000695800086958000869580008695800083C
:1000A0006958000869580008CB4D000869580008D5
:1000B000695800086958000869580008ED4D0008A3
:1000C000695800086958000869580008695800080C
:1000D000695800086958000869580008014E00086E
:1000E00069580008695800086958000869580008EC
:1000F00069580008695800086958000869580008DC
:1001000069580008214E000869580008695800081D
:1001100069580008695800086958000869580008BB
:100120006958000869580008354E000869580008E9
:1001300069580008695800084D4E000869580008C1
:10014000695800086958000869580008695800088B
:10015000695800086958000869580008695800087B
:10016000695800086958000869580008695800086B
:10017000695800086958000869580008695800085B
:10018000695800086958000869580008695800084B
:1001900069580008614E000869580008695800084D
:1001A000695800086958000869580008695800082B
:1001B000695800086958000869580008695800081B
:1001C000695800086958000869580008695800080B
:1001D00069580008695800086958000869580008FB
:1001E00069580008695800086958000869580008EB
:1001F00069580008754E00086958000869580008D9
:1002000069580008695800086958000869580008CA
:1002100069580008695800086958000869580008BA
:1002200069580008695800086958000869580008AA
:10023000695800086958000869580008695800089A
:0C02400069580008695800086958000857
:1002500010B5054C237833B9044B13B10448AFF300
:1002600000800123237010BD7802002000000000F0
:100270005C22020808B5034B1BB103490348AFF3E6
:10028000008008BD000000007C0200205C22020803
:1002900010F8012B11F8013B012A28BF9A42F7D030
:1002A000D01A7047034613F8012B002AFBD1181A05
:1002B0000138704781F0004102E000BF83F0004345
:1002C00030B54FEA41044FEA430594EA050F08BFF1
:1002D00090EA020F1FBF54EA000C55EA020C7FEAB5
:1002E000645C7FEA655C00F0E2804FEA5454D4EB32
:1002F0005555B8BF6D420CDD2C4480EA020281EAFC
:10030000030382EA000083EA010180EA020281EA33
:100310000303362D88BF30BD11F0004F4FEA013185
:100320004FF4801C4CEA113102D0404261EB410194
:1003300013F0004F4FEA03334CEA133302D052421A
:1003400063EB430394EA050F00F0A780A4F10104D6
:10035000D5F1200E0DDB02FA0EFC22FA05F2801810
:1003600041F1000103FA0EF2801843FA05F35941F6
:100370000EE0A5F120050EF1200E012A03FA0EFC75
:1003800028BF4CF0020C43FA05F3C01851EBE3719F
:1003900001F0004507D54FF0000EDCF1000C7EEBBC
:1003A00000006EEB0101B1F5801F1BD3B1F5001FFA
:1003B0000CD349085FEA30004FEA3C0C04F1010419
:1003C0004FEA445212F5800F80F09A80BCF1004F42
:1003D00008BF5FEA500C50F1000041EB045141EAC4
:1003E000050130BD5FEA4C0C404141EB0101013C8D
:1003F00028BFB1F5801FE9D291F0000F04BF01467C
:100400000020B1FA81F308BF2033A3F10B03B3F14D
:1004100020020CDA0C3208DD02F1140CC2F10C02DD
:1004200001FA0CF021FA02F10CE002F11402D8BF3B
:10043000C2F1200C01FA02F120FA0CFCDCBF41EA07
:100440000C019040E41AA2BF01EB0451294330BDD6
:100450006FEA04041F3C1CDA0C340EDC04F11404B3
:10046000C4F1200220FA04F001FA02F340EA03008A
:1004700021FA04F345EA030130BDC4F10C04C4F1D0
:10048000200220FA02F001FA04F340EA03002946B0
:1004900030BD21FA04F0294630BD94F0000F83F4FA
:1004A000801306BF81F480110134013D4EE77FEADD
:1004B000645C18BF7FEA655C29D094EA050F08BF29
:1004C00090EA020F05D054EA000C04BF194610460A
:1004D00030BD91EA030F1EBF0021002030BD5FEA4E
:1004E000545C05D14000494128BF41F0004130BD76
:1004F00014F580043CBF01F5801130BD01F00045CA
:1005000045F0FE4141F470014FF0000030BD7FEA3C
:10051000645C1ABF194610467FEA655C1CBF0B4637
:10052000024650EA013406BF52EA033591EA030F4E
:1005300041F4002130BD00BF90F0000F04BF002146
:10054000704730B54FF4806404F132044FF0000579
:100550004FF0000150E700BF90F0000F04BF0021F2
:10056000704730B54FF4806404F1320410F0004558
:1005700048BF40424FF000013EE700BF42004FEA53
:10058000E2014FEA31014FEA02701FBF12F07F43D0
:1005900093F07F4F81F06051704732F07F4208BF87
:1005A000704793F07F4F04BF41F40021704730B58E
:1005B0004FF4607401F0004521F000411CE700BFDA
:1005C00050EA010208BF704730B54FF000050AE05D
:1005D00050EA010208BF704730B511F0004502D55E
:1005E000404261EB41014FF4806404F132045FEA60
:1005F000915C3FF4D8AE4FF003025FEADC0C18BF09
:1006000003325FEADC0C18BF033202EBDC02C2F1FA
:10061000200300FA03FC20FA02F001FA03FE40EA8C
:100620000E0021FA02F11444BDE600BF70B54FF090
:10063000FF0C4CF4E06C1CEA11541DBF1CEA13556E
:1006400094EA0C0F95EA0C0F00F0DEF82C4481EAD6
:10065000030621EA4C5123EA4C5350EA013518BFF6
:1006600052EA033541F4801143F4801338D0A0FBE3
:1006700002CE4FF00005E1FB02E506F00042E0FB90
:1006800003E54FF00006E1FB03569CF0000F18BF96
:100690004EF0010EA4F1FF04B6F5007F64F540743E
:1006A00004D25FEA4E0E6D4146EB060642EAC621D1
:1006B00041EA55514FEAC52040EA5E504FEACE2E3E
:1006C000B4F1FD0C88BFBCF5E06F1ED8BEF1004F41
:1006D00008BF5FEA500E50F1000041EB045170BDBD
:1006E00006F0004646EA010140EA020081EA030101
:1006F000B4EB5C04C2BFD4EB0C0541EA045170BDFD
:1007000041F480114FF0000E013C00F3AB8014F176
:10071000360FDEBF002001F0004170BDC4F10004BF
:10072000203C35DA0C341BDC04F11404C4F1200540
:1007300000FA05F320FA04F001FA05F240EA02009B
:1007400001F0004221F0004110EBD37021FA04F6D1
:1007500042EB06015EEA430E08BF20EAD37070BD8B
:10076000C4F10C04C4F1200500FA04F320FA05F0EA
:1007700001FA04F240EA020001F0004110EBD370EC
:1007800041F100015EEA430E08BF20EAD37070BD5C
:10079000C4F1200500FA05F24EEA020E20FA04F335
:1007A00001FA05F243EA020321FA04F001F00041E4
:1007B00021FA04F220EA020000EBD3705EEA430E55
:1007C00008BF20EAD37070BD94F0000F0FD101F084
:1007D0000046400041EB010111F4801F08BF013CBD
:1007E000F7D041EA060195F0000F18BF704703F0FB
:1007F0000046520043EB030313F4801F08BF013D82
:10080000F7D043EA0603704794EA0C0F0CEA13553D
:1008100018BF95EA0C0F0CD050EA410618BF52EAF7
:100820004306D1D181EA030101F000414FF00000FD
:1008300070BD50EA410606BF1046194652EA43060B
:1008400019D094EA0C0F02D150EA013613D195EA7F
:100850000C0F05D152EA03361CBF104619460AD1C7
:1008600081EA030101F0004141F0FE4141F47001D1
:100870004FF0000070BD41F0FE4141F4780170BDC1
:1008800070B54FF0FF0C4CF4E06C1CEA11541DBF26
:100890001CEA135594EA0C0F95EA0C0F00F0A7F828
:1008A000A4EB050481EA030E52EA03354FEA013155
:1008B00000F088804FEA03334FF0805545EA131368
:1008C00043EA12634FEA022245EA111545EA106530
:1008D0004FEA00260EF000419D4208BF964244F1C7
:1008E000FD0404F5407402D25B084FEA3202B61AE6
:1008F00065EB03055B084FEA32024FF480104FF4BA
:10090000002CB6EB020E75EB030E22BFB61A75462D
:1009100040EA0C005B084FEA3202B6EB020E75EBC0
:10092000030E22BFB61A754640EA5C005B084FEA28
:100930003202B6EB020E75EB030E22BFB61A7546F5
:1009400040EA9C005B084FEA3202B6EB020E75EB00
:10095000030E22BFB61A754640EADC0055EA060EC1
:1009600018D04FEA051545EA16754FEA06164FEA04
:10097000C30343EA52734FEAC2025FEA1C1CC0D1B0
:1009800011F4801F0BD141EA00014FF000004FF03D
:10099000004CB6E711F4801F04BF01430020B4F1FE
:1009A000FD0C88BFBCF5E06F3FF6AFAEB5EB030CB6
:1009B00004BFB6EB020C5FEA500C50F1000041EBB3
:1009C000045170BD0EF0004E4EEA113114EB5C0480
:1009D000C2BFD4EB0C0541EA045170BD41F4801153
:1009E0004FF0000E013C90E645EA060E8DE60CEA5B
:1009F000135594EA0C0F08BF95EA0C0F3FF43BAF78
:100A000094EA0C0F0AD150EA01347FF434AF95EA2E
:100A10000C0F7FF425AF104619462CE795EA0C0F12
:100A200006D152EA03353FF4FDAE1046194622E7DF
:100A300050EA410618BF52EA43067FF4C5AE50EAB9
:100A400041047FF40DAF52EA43057FF4EBAE12E7A9
:100A50004FF0FF3C06E000BF4FF0010C02E000BF8A
:100A60004FF0010C4DF804CD4FEA410C7FEA6C5C6D
:100A70004FEA430C18BF7FEA6C5C1BD001B050EA10
:100A8000410C0CBF52EA430C91EA030F02BF90EAFB
:100A9000020F0020704710F1000F91EA030F58BFBA
:100AA000994208BF90422CBFD8176FEAE37040F01C
:100AB000010070474FEA410C7FEA6C5C02D150EABA
:100AC000013C07D14FEA430C7FEA6C5CD6D152EA75
:100AD000033CD3D05DF8040B704700BF844610463A
:100AE00062468C461946634600E000BF01B5FFF739
:100AF000B7FF002848BF10F1000F01BD4DF808ED09
:100B0000FFF7F4FF0CBF012000205DF808FB00BFD9
:100B10004DF808EDFFF7EAFF34BF012000205DF833
:100B200008FB00BF4DF808EDFFF7E0FF94BF012080
:100B300000205DF808FB00BF4DF808EDFFF7CEFF81
:100B400094BF012000205DF808FB00BF4DF808EDC0
:100B5000FFF7C4FF34BF012000205DF808FB00BF91
:100B60004FEA410C7FEA6C5C02D150EA013C0AD1A9
:100B70004FEA430C7FEA6C5C02D152EA033C02D19B
:100B80004FF0000070474FF0010070474FEA4102FC
:100B900012F5001215D211D56FF47873B3EB6252CF
:100BA00012D94FEAC12343F0004343EA505311F0F6
:100BB000004F23FA02F018BF404270474FF0000088
:100BC000704750EA013005D111F0004008BF6FF0C6
:100BD000004070474FF00000704700BF4A0011D23C
:100BE00012F5001211D20DD56FF47873B3EB625287
:100BF0000ED44FEAC12343F0004343EA505323FA93
:100C000002F070474FF00000704750EA013002D107
:100C10004FF0FF3070474FF0000070474FEA41023D
:100C2000B2F1E04324BFB3F5001CDCF1FE5C0DD94A
:100C300001F0004C4FEAC0024CEA5070B2F1004F94
:100C400040EB830008BF20F00100704711F0804F97
:100C500021D113F13872BCBF01F00040704741F45C
:100C600080114FEA5252C2F11802C2F1200C10FA60
:100C70000CF320FA02F018BF40F001004FEAC12344
:100C80004FEAD32303FA0CFC40EA0C0023FA02F3E8
:100C90004FEA4303CCE77FEA625307D150EA0133BE
:100CA0001EBF4FF0FE4040F44000704701F000408E
:100CB00040F0FE4040F40000704700BF53B94AB90D
:100CC000002908BF00281CBF4FF0FF314FF0FF3054
:100CD00000F0B4B9ADF1080C6DE904CE00F03CF8B9
:100CE000DDF804E0DDE9022304B0704738B50022E6
:100CF000002304460D46FFF70BFF28B9204629467E
:100D0000BDE8384000F00AB8204605F1004100F087
:100D100005F8404261EB410138BD00BFD0B500226B
:100D20000B4B06460F46FFF781FCFFF757FF0446C3
:100D3000FFF702FC0022074BFFF778FC02460B4648
:100D400030463946FFF7BAFAFFF748FF2146D0BDD3
:100D50000000F03D0000F0412DE9F04F099D0C46E8
:100D6000002B4DD18A420F4684469646B2FA82F352
:100D700060D94BB102FA03FEC3F120029F4000FA92
:100D800003FC20FA02F217434FEA1E461FFA8EF4C4
:100D90004FEA1C42B7FBF6F106FB117701FB04F0AA
:100DA00042EA0742904208D91EEB020201F1FF37E6
:100DB00002D2904200F22D813946121A1FFA8CFCA1
:100DC000B2FBF6F006FB102200FB04F44CEA024CE6
:100DD000644508D91EEB0C0C00F1FF3202D26445C9
:100DE00000F21A81104640EA0140ACEB040C0021ED
:100DF00025B12CFA03F30022C5E90032BDE8F08FDB
:100E00008B4205D90DB1C5E9000100210846F5E77F
:100E1000B3FA83F100294DD1A342C0F0F280904291
:100E200080F0EF80064623460846002DE6D0C5E94F
:100E30000063E3E7002B40F0A2808A1A4FEA1E47C6
:100E40001FFA8EF60121B2FBF7F407FB14204FEADC
:100E50001C4242EA004206FB04F090420FD91EEB0E
:100E6000020204F1FF382CBF4FF001094FF00009D6
:100E7000904203D9B9F1000F00F0C8804446121A1D
:100E80001FFA8CFCB2FBF7F007FB102200FB06F602
:100E90004CEA024C664508D91EEB0C0C00F1FF32FF
:100EA00002D2664500F2BB801046ACEB060C40EA6D
:100EB00004409DE7C1F120068B4004FA01FE22FAAE
:100EC00006F720FA06FCF4408A401F434EEA0C0362
:100ED00000FA01FE4FEA17484FEA13491FFA87FC50
:100EE000B4FBF8F008FB104449EA044400FB0CF999
:100EF000A1450ED93C1900F1FF3A2CBF4FF0010B70
:100F00004FF0000BA14503D9BBF1000F00F0938017
:100F10005046A4EB09041FFA83F9B4FBF8F308FB6D
:100F2000134403FB0CFC49EA0444A44506D93C19CC
:100F300003F1FF3801D2A4457AD8434643EA004082
:100F4000A4EB0C04A0FB02984445CC46434602D3D4
:100F500006D1CE4504D20138B9EB020C68EB070389
:100F60005DB1BEEB0C0264EB030404FA06F622FA50
:100F700001F3CC401E43C5E9006400213EE702FABC
:100F800003FEC3F1200104FA03F200FA03FCCC4093
:100F90004FEA1E4720FA01F11FFA8EF6B4FBF7F074
:100FA0000A4307FB1044110C41EA044100FB06F41C
:100FB0008C420ED91EEB010100F1FF382CBF4FF01F
:100FC00001094FF000098C4202D9B9F1000F2CD071
:100FD0004046091B92B2B1FBF7F407FB141142EA39
:100FE000014204FB06F1914207D91EEB020204F113
:100FF000FF3801D2914215D84446521A44EA0041C2
:1010000021E7861A64EB030301200EE7023C7244D9
:1010100035E702397244D0E6F4440238E3E6F4449A
:10102000023842E7023C7244E7E702387144D0E7F5
:10103000023B3C4482E702383C446AE7704700BF09
:1010400080B582B000AF78604FF4D47206497868FA
:101050001EF061F84FF4D471034800F035FD00BF75
:101060000837BD4680BD00BFA402002080B500AF98
:101070004FF4D471024800F027FD00BF80BD00BFCF
:10108000A402002080B582B000AF786039607B6830
:1010900019687B68DB683A68034800F0D5FD00BF3B
:1010A0000837BD4680BD00BFA402002080B582B0D5
:1010B00000AF786039603B6803F00103002B15D066
:1010C0000C4B00221A600C4B0C4A40210C4809F0D2
:1010D000B9FB0346002B03D107490848FFF7D2FFAD
:1010E000084B064A4021084809F0ACFB00BF08370E
:1010F000BD4680BDD40E002094020020E4390120BA
:10110000543A01209C020020B83A012080B586B0F4
:1011100002AF786039600023FB73214B00221A7004
:101120000023BB6002E0BB680133BB601C4B1B7833
:1011300083F00103DBB2002B0AD004F049FC024625
:101140003B68B2FBF3F101FB03F3D31A002BEAD1A6
:10115000134B1B78002B10D01248FFF7A3F803465F
:101160001A46104978681DF0D6FF4FF4006200213E
:101170000C481DF05DFE0123FB73094B1B781A46DA
:10118000FB7B00931346BA6807490A2000F044FC31
:10119000034B00221A70FB7B18461037BD4680BDFA
:1011A000500C0020500400207822020890B585B031
:1011B00000AFF860B9607A60B868FFF773F803466B
:1011C0001946B86800F080FC0D4B1C68F868FFF702
:1011D00069F803469AB24FF4FA63F968204611F0B1
:1011E00059FDBB68002B01D1002304E07968B86881
:1011F000FFF78CFF034618461437BD4690BD00BF6D
:101200004C04002080B5E6B000AF0023C7F894314D
:1012100007F5CC73A3F5CA7318464FF4C8731A4682
:1012200000211DF005FE3B1D4FF47A721946BE48A1
:10123000FFF7BCFF0346002B05D03B1D1A46BB49F8
:101240000A2000F0E9FB3B1D6422002118461DF036
:10125000EFFD3B1D4FF47A721946B548FFF7A6FF24
:101260000346002B05D03B1D1A46B2490A2000F068
:10127000D3FB3B1D6422002118461DF0D9FD3B1D08
:101280004FF47A721946AC48FFF790FF0346002BE3
:1012900005D03B1D1A46A9490A2000F0BDFB3B1DA5
:1012A0006422002118461DF0C3FD3B1D4FF47A72E5
:1012B0001946A348FFF77AFF0346002B05D03B1DD4
:1012C0001A46A0490A2000F0A7FB3B1D642200211A
:1012D00018461DF0ADFD3B1D4FF47A7219469A4831
:1012E000FFF764FF0346002B05D03B1D1A469749C4
:1012F0000A2000F091FB3B1D6422002118461DF0DE
:1013000097FD3B1D4FF47A7219469148FFF74EFF47
:101310000346002B05D03B1D1A468E490A2000F0DB
:101320007BFB3B1D6422002118461DF081FD3B1D07
:101330004FF47A7219468848FFF738FF0346002BAE
:1013400005D03B1D1A4685490A2000F065FB3B1D70
:101350006422002118461DF06BFD3B1D4FF47A728C
:1013600019467F48FFF722FF0346002B05D03B1D9F
:101370001A467C490A2000F04FFB3B1D4FF4C8720F
:10138000002118461DF054FD0023C7F894313B1D81
:101390004FF47A7219467448FFF708FF0346002B92
:1013A0001DD03B1D1A4671490A2000F035FB3B1D3C
:1013B0006F4918461DF0FCFD0346002B0FD1D7F8EE
:1013C0009431022B05DCD7F894310133C7F89431FE
:1013D000DAE768490A2000F01FFB00239FE03B1D6D
:1013E0004FF4C872002118461DF022FD0023C7F8F3
:1013F00094313B1D4FF4FA6219465F48FFF7D6FE61
:101400000346002B1DD03B1D1A465C490A2000F004
:1014100003FB3B1D5A4918461DF0CAFD0346002B2D
:101420000FD0D7F89431022B05DCD7F89431013373
:10143000C7F89431DAE753490A2000F0EDFA0023A7
:101440006DE03B1D6422002118461DF0F1FC3B1DA0
:101450004FF47A7219464C48FFF7A8FE0346002B5A
:1014600005D03B1D1A4649490A2000F0D5FA3B1D1C
:101470006422002118461DF0DBFC3B1D4FF47A72FC
:1014800019464348FFF792FE0346002B05D03B1D4B
:101490001A4640490A2000F0BFFA3B1D6422002191
:1014A00018461DF0C5FC3B1D4FF47A7219463A48A8
:1014B000FFF77CFE0346002B05D03B1D1A4637493B
:1014C0000A2000F0A9FA3B1D6422002118461DF0F5
:1014D000AFFC3B1D4FF47A7219463148FFF766FEA8
:1014E0000346002B05D03B1D1A462E490A2000F06A
:1014F00093FA3B1D6422002118461DF099FC3B1D08
:101500004FF47A7219462848FFF750FE0346002B25
:1015100005D03B1D1A4625490A2000F07DFA1846E1
:1015200007F5CC77BD4680BDA4220208AC22020894
:10153000C0220208E0220208102302082023020829
:1015400040230208482302085C230208642302089F
:101550007823020884230208A0230208A823020893
:10156000BC230208C8230208DC230208E82302087F
:10157000FC2302080C240208202402082C24020860
:10158000402402084C240208602402086C2402084B
:10159000802402088C240208A4240208B024020833
:1015A000C4240208D0240208E8240208F424020813
:1015B00080B588B000AF78600023FB6007F11003AE
:1015C00000221A605A60C3F807204FF47A727968D3
:1015D0001748FFF7EBFD0346002B23D07B6802334F
:1015E000144918461DF0E4FC02467B680233D31A06
:1015F000FB617B68991CFA6907F10C0318461DF022
:101600008AFD64210C4800F05FFA07F10C031946CB
:1016100078681DF06AFD7A6808490A2000F0FCF934
:10162000012300E0002318462037BD4680BD00BFDF
:10163000BC23020808250208540C00200C250208CF
:1016400080B59AB000AF00237B6007F108036022E9
:10165000002118461DF0ECFBFF23FB703B1D6422AC
:10166000002118461DF0E4FB3B1D4FF47A72194629
:101670000C48FFF79BFD0346002B0DD0FA1C3B1DC9
:10168000094918461DF098FA3B1D1A4607490A20D9
:1016900000F0C2F9FB7801E04FF0FF3318466837DD
:1016A000BD4680BD20240208202502082C25020802
:1016B00080B5ADF5187D00AF07F51873A3F5177366
:1016C000186007F51873A3F5FA7318464FF4FA7308
:1016D0001A4600211DF0ACFB07F51873A3F516732D
:1016E00000221A6004336022002118461DF0A0FB7E
:1016F00007F108036422002118461DF099FB07F149
:1017000008034FF4FA6219461A48FFF74FFD0346E3
:10171000002B29D007F16C034FF4FA71184600F042
:10172000D3F907F16C0207F108031349184600F0DA
:10173000D9F907F16C03C8331846FEF7B3FD02462A
:1017400007F16C0303F1C80107F51873A3F51773CC
:1017500018681DF0E0FC07F108031A4607490A2043
:1017600000F05AF9012300E00023184607F5187726
:10177000BD4680BDA4240208402502084425020875
:1017800090B5ADF2E47D00AF07F5FC64A4F2D4742B
:10179000206007F5FC60A0F5FB60016007F5FC61C7
:1017A000A1F2DC710A6007F5FC62A2F5FC6213602D
:1017B00007F5FC63A3F26C73184640F26C731A468B
:1017C00000211DF035FB07F5FC63A3F5FA63002249
:1017D0001A6004336022002118461DF029FB07F12E
:1017E00010036422002118461DF022FB07F11003AC
:1017F0004FF47A7219462348FFF7D8FC0346002BB2
:1018000039D007F1740207F110031F49184600F0A0
:1018100069F907F1740303F5C87207F5FC63A3F2D5
:10182000D473114618681DF060FC07F1740303F5CA
:10183000FA7207F5FC63A3F5FB63114618681DF007
:1018400054FC07F1740303F5167207F5FC63A3F269
:10185000DC73114618681DF048FC07F1740303F5AA
:101860002F7207F5FC63A3F5FC63114618681DF0A1
:101870003CFC012300E00023184607F2E477BD4654
:1018800090BD00BF5C2502084025020880B582B0EB
:1018900000AF7860234A7B6813600022042122484D
:1018A00009F0E8FF01224FF40071204809F0E2FF3F
:1018B000002208211E4809F0DDFF002210211C48EB
:1018C00009F0D8FF00F078F84FF47A7219491A48F5
:1018D000FFF76CFC0346002BF6D0164A17490A2086
:1018E00000F09AF841F2883004F07EF8FFF78AFCA5
:1018F00001F03CF964210F4800F0E6F80D48FFF7CD
:1019000057FE0346002B04D00A4801F0AFF801232C
:1019100004E00B490A2000F07FF80023184608373E
:10192000BD4680BD4C040020000C0242000802426B
:1019300000040242540C0020A4220208742502086C
:101940007825020880B500AF034A04490A2000F058
:1019500063F800BF80BD00BF500400208825020846
:1019600080B582B000AF0346FB80FA88054B06497C
:101970000A2000F051F8054B01221A7000BF083709
:10198000BD4680BD500400209C250208500C00205C
:1019900080B400AF074B1B78002B03D0054B00220F
:1019A0001A7002E0034B01221A7000BFBD465DF8B9
:1019B000047B70470000002080B500AF064B1B7809
:1019C000002B07D0054B1B684FF4006204491846F2
:1019D00013F0D8FB00BF80BD000000204C040020A5
:1019E0005004002080B483B000AF78600B46FB70D9
:1019F000074A7B681360FB78002B02D0054B01225D
:101A00001A6000BF0C37BD465DF8047B704700BF0D
:101A1000B80C0020BC0C00200EB490B5ADF5FF6DE5
:101A200000AF024607F5FF63A3F2F1731A70164B7D
:101A30001B68002B20D007F60803C7F8F43707F11E
:101A40000C00D7F8F437D7F804284FF4FD611DF0E7
:101A50004DF90E4B1C6807F10C031846FEF722FCEB
:101A600003469AB207F5FF63A3F2F1731B7807F1FF
:101A70000C01204611F00EF900BF07F5FF67BD46C7
:101A8000BDE8904003B07047BC0C0020B80C0020AB
:101A900080B584B000AF0346B9607A60FB73084B31
:101AA0001B68002B07D0074B18687B689AB2FB7B3A
:101AB000B96811F0EFF800BF1037BD4680BD00BF18
:101AC000BC0C0020B80C002080B582B000AF78605C
:101AD00039603A68002178681DF0AAF900BF08371C
:101AE000BD4680BD2DE9F0478AB000AFF860B9600F
:101AF0007A60B968F8681DF05BFA786200233B628F
:101B00007B6A002B7BD13B6A5A1C3A621A466423DB
:101B100002FB03F37A68D618F868FEF7C3FB0346A6
:101B20001A46F96830461DF0F6FA68E06B469A46A8
:101B30007A6AFB68D31AFB77F97F0B46013BBB61DE
:101B4000CBB200221C4615464FF000024FF00003B6
:101B5000EB0043EA5473E200CBB200229846914670
:101B60004FF000024FF000034FEAC90343EA5873F5
:101B70004FEAC8020B460733DB08DB00ADEB030D71
:101B80006B4600337B61FB7F1A46002178691DF0AC
:101B90004FF9FB7F1A46F96878691DF0BCFAB868FE
:101BA000FEF780FB02467B6A1344FB603B6A5A1CCB
:101BB0003A621A46642302FB03F37A681344FA7FFD
:101BC000796918461DF0A7FAB968F8681DF0F0F9B0
:101BD00078627B6A002B11D13B6A5A1C3A621A4622
:101BE000642302FB03F37A68D618F868FEF75AFB01
:101BF00003461A46F96830461DF08DFAD5467B6AD1
:101C0000002B93D1012318462837BD46BDE8F08745
:101C100080B582B000AF0346FB80FA88084B0949C3
:101C20000A20FFF7F9FE064800F08AFF4FF4FA7128
:101C30000348FFF749FF00BF0837BD4680BD00BF1E
:101C4000C00C0020D425020880B586B000AFF86033
:101C5000B9607A603B6000237B6128E0F9687A69AB
:101C600013465B0013449B000B441B881A46BB6859
:101C7000934219D17A6913465B0013449B00FA68BA
:101C80001344023309211846FFF71EFF7A691346F1
:101C90005B0013449B00FA68134402333A68796886
:101CA00018461DF038FA43E07B6901337B61FB681D
:101CB000D3F8A4317A699A42D0DBFB68D3F8A43117
:101CC000222B04DD1C490A20FFF7A6FE30E0FB684A
:101CD000D3F8A42113465B0013449B00FA68134415
:101CE000023309211846FFF7EFFEFB68D3F8A42161
:101CF000BB6898B2F96813465B0013449B000B4421
:101D000002461A80FB68D3F8A42113465B001344F3
:101D10009B00FA68134402333A68796818461DF04C
:101D2000FAF9FB68D3F8A4315A1CFB68C3F8A42164
:101D30001837BD4680BD00BFF425020880B483B0CB
:101D400000AF78607B6803F500431A464FF0FF331D
:101D5000C2F8003C00BF0C37BD465DF8047B7047FD
:101D600080B483B000AF78607B6803F50043D3F89C
:101D7000003C222B0CBF01230023DBB218460C379A
:101D8000BD465DF8047B704780B483B000AF7860D7
:101D90007B6803F50043D3F8003CB3F1FF3F0CBF71
:101DA00001230023DBB218460C37BD465DF8047BE7
:101DB0007047000080B584B000AFF860B9607A6009
:101DC000F868FFF7CDFF0346002B05D017490A201E
:101DD000FFF722FE002325E0FB6803F50043D3F85C
:101DE000003C0133FA6802F50042C2F8003CFB688F
:101DF00003F50043D3F8003C9B02FA6813444FF408
:101E000080611846FFF760FEFB6803F50043D3F8D6
:101E1000003C9B02FA6813447A68B96818461DF0C2
:101E20007AF9012318461037BD4680BD14260208F2
:101E300080B582B000AF786039607868FFF7A4FFA2
:101E40000346002B05D011490A20FFF7E5FD0023CA
:101E500017E07B6803F50043D3F8003C9B027A68E7
:101E60001344194638681DF040F97B6803F50043B8
:101E7000D3F8003C013B7A6802F50042C2F8003C0E
:101E8000012318460837BD4680BD00BF2C26020836
:101E90002DE9F04F91B002AFF860B9606B461E4675
:101EA000F868FEF7FFF9B862B96AF86800F070FBED
:101EB000F868FEF7F7F9B862BB6A03339B087B62E8
:101EC000796A0B46013B3B62002339607B604FF02F
:101ED00000024FF0000378684301386843EAD0639A
:101EE0003868420100238A469B464FF000024FF0BB
:101EF00000034FEA4B1343EADA634FEA4A128B00BE
:101F00000733DB08DB00ADEB030D02AB03339B08AB
:101F10009B00FB6100237B6326E07B6B9B0003330C
:101F2000FA6813441B7819467B6B9B000233FA68EE
:101F300013441B781B0241EA03027B6B9B000133B5
:101F4000F9680B441B781B041A437B6B9B00F968F0
:101F50000B441B781B0642EA0301FB697A6B43F8CA
:101F600022107B6B01337B637A6B7B6A9A42D4D3FA
:101F7000796A0B46013BBB610023884699464FF0C6
:101F800000024FF000034FEA491343EAD8634FEAD7
:101F9000481200230C461D464FF000024FF000038C
:101FA0006B0143EAD46362018B000733DB08DB007B
:101FB000ADEB030D02AB03339B089B007B617B6A97
:101FC0009B001A46002178691CF032FF0422002190
:101FD000B8681CF02DFF7B6A9AB24FF4FA63009345
:101FE0007B69F9692E4805F02BFD00233B6331E046
:101FF0007B693A6B53F822301A0E3B6B9B001946F3
:10200000BB680B44D2B21A707B693A6B53F822302A
:10201000190C3B6B9B000133BA681344CAB21A70A7
:102020007B693A6B53F82230190A3B6B9B000233F1
:10203000BA681344CAB21A707B693A6B53F822101B
:102040003B6B9B000333BA681344CAB21A703B6BF4
:1020500001333B633B6B7A6A9A42C9D811490A2023
:10206000FFF7DAFC0023FB620BE0FB6ABA6813445B
:102070001B781A460C490A20FFF7CEFCFB6A013395
:10208000FB62FB6ABA6A9A42EFD808490A20FFF756
:10209000C3FCBB6AB54618463C37BD46BDE8F08F69
:1020A00038390120442602085C260208642602080A
:1020B0002DE9F04F97B002AF78623962FA616B4652
:1020C0001E467A6A90496420FFF7A6FC786AFEF7FC
:1020D000E9F878647B6C5B0803339B083B647B6C9A
:1020E00059080B46013BFB6300230C461D464FF08D
:1020F00000024FF00003EB0043EA5473E2000023B8
:1021000039617B614FF000024FF00003D7E90445CD
:102110002846C300204643EA50732046C200CB1D28
:10212000DB08DB00ADEB030D02AB0033BB63F969E9
:10213000022018F019FCFB69013B184601F05CFC19
:10214000B96B786A00F04CFA396C0B46013B7B6343
:102150000023B960FB604FF000024FF00003D7E9A5
:10216000024528464301204643EAD0632046420107
:10217000002339607B604FF000024FF00003D7E985
:10218000004528464301204643EAD06320464201E9
:102190008B000733DB08DB00ADEB030D02AB033331
:1021A0009B089B003B633B6C9B001A460021386BED
:1021B0001CF03EFE0023FB6420E0FB6C9B00BA6B2E
:1021C000D35C1A06FB6C9B000133B96BCB5C1B0420
:1021D0001A43FB6C9B000233B96BCB5C1B021343AD
:1021E000FA6C92000332B96B8A5C43EA02013B6BE2
:1021F000FA6C43F82210FB6C0133FB64FB6C3A6C05
:102200009A42DAD8396C0B46013BFB6200238A46BE
:102210009B464FF000024FF000034FEA4B1343EA96
:10222000DA634FEA4A120023884699464FF00002CB
:102230004FF000034FEA491343EAD8634FEA4812CC
:102240008B000733DB08DB00ADEB030D02AB033380
:102250009B089B00BB623B6C9B001A460021B86A3E
:102260001CF0E6FD3B6C9AB24FF4FA630093BB6A34
:10227000396B264805F092FC0023BB6431E0BB6A51
:10228000BA6C53F822301A0EBB6C9B0019463B6A9D
:102290000B44D2B21A70BB6ABA6C53F82230190CD4
:1022A000BB6C9B0001333A6A1344CAB21A70BB6A12
:1022B000BA6C53F82230190ABB6C9B0002333A6A9D
:1022C0001344CAB21A70BB6ABA6C53F82210BB6CC2
:1022D0009B0003333A6A1344CAB21A70BB6C0133D1
:1022E000BB64BB6C3A6C9A42C9D8386AFDF7DAFF16
:1022F00078643A6A7B6C134400221A70B54600BFBA
:102300005437BD46BDE8F08F6826020838390120F1
:102310002DE9F04F97B002AF78623962FA616B46EF
:102320001E467A6A95496420FFF776FB786AFDF7C6
:10233000B9FF78647B6C5B0803339B083B647B6C60
:1023400059080B46013BFB6300230C461D464FF02A
:1023500000024FF00003EB0043EA5473E200002355
:1023600039617B614FF000024FF00003D7E904456B
:102370002846C300204643EA50732046C200CB1DC6
:10238000DB08DB00ADEB030D02AB0033BB63FB6985
:10239000013B184601F008FBB96B786A00F020F9A0
:1023A000396C0B46013B7B630023B960FB604FF047
:1023B00000024FF00003D7E90245284643012046BA
:1023C00043EAD06320464201002339607B604FF02E
:1023D00000024FF00003D7E900452846430120469C
:1023E00043EAD063204642018B000733DB08DB0061
:1023F000ADEB030D02AB03339B089B003B633B6CCF
:102400009B001A460021386B1CF012FD0023FB6470
:1024100020E0FB6C9B00BA6BD35C1A06FB6C9B0044
:102420000133B96BCB5C1B041A43FB6C9B0002337A
:10243000B96BCB5C1B021343FA6C92000332B96B8D
:102440008A5C43EA02013B6BFA6C43F82210FB6C96
:102450000133FB64FB6C3A6C9A42DAD8396C0B4658
:10246000013BFB6200238A469B464FF000024FF07F
:1024700000034FEA4B1343EADA634FEA4A120023A0
:10248000884699464FF000024FF000034FEA491387
:1024900043EAD8634FEA48128B000733DB08DB00BE
:1024A000ADEB030D02AB03339B089B00BB623B6C9F
:1024B0009B001A460021B86A1CF0BAFC3B6C9AB229
:1024C0004FF4FA630093BB6A396B2D4805F066FB45
:1024D0000023BB6431E0BB6ABA6C53F822301A0E99
:1024E000BB6C9B0019463B6A0B44D2B21A70BB6AA4
:1024F000BA6C53F82230190CBB6C9B0001333A6A5A
:102500001344CAB21A70BB6ABA6C53F82230190A63
:10251000BB6C9B0002333A6A1344CAB21A70BB6A9E
:10252000BA6C53F82210BB6C9B0003333A6A134415
:10253000CAB21A70BB6C0133BB64BB6C3A6C9A4272
:10254000C9D8386AFDF7AEFE78643A6A7B6C1344EA
:1025500000221A700B490A20FFF75EFA3A6A0A490C
:102560000A20FFF759FA09490A20FFF755FAB5463C
:1025700000BF5437BD46BDE8F08F00BF6826020893
:10258000383901206C2602088426020864260208D5
:1025900080B485B000AF786039603B68DBB203F08F
:1025A0000F03DBB2C3F11003FB72FB7A0F2B10D8C1
:1025B0003B68FB6007E07A68FB681344FA7A1A709C
:1025C000FB680133FB60FA7A3B681344FA689A426D
:1025D000F1D300BF1437BD465DF8047B704700009F
:1025E00080B586B000AF786039607868FDF75AFE34
:1025F00038613B6903F00103002B08D0114B1B68C5
:10260000DB682222012110481CF074FA17E03B69B4
:102610005B08FB6000237B610DE07B695B007A68EF
:10262000D0183A687B6913441A4608491CF0C4FA6A
:102630007B6901337B617A69FB689A42EDD3183775
:10264000BD4680BD2402002088260208AC26020870
:1026500080B590B000AF3B1D3C22002118461CF015
:10266000E7FB08F045FD0346002B01D002F087F898
:1026700008F080FD0346002B01D002F080F808F03E
:102680009BFD0346002B01D002F079F808F056FDBF
:102690000346002B01D002F072F800BF4037BD4660
:1026A00080BD0000B0B588B002AF3B4819F064F9B6
:1026B0003A4818F0C3FB01213948FFF793F915F0A8
:1026C000BFFA16F00BFD374815F0BEFF364815F07F
:1026D000CFFF3648FFF732FB3548FFF72FFB354871
:1026E0000FF022FE344818F0B3FA344818F0C0FA5C
:1026F000334A34490A20FFF78FF93348FFF7C6F809
:102700000346002B14D031490A20FFF785F93048E1
:1027100016F064FC2F4816F0A5FC19F04BFF00F0F2
:1027200001FF2D4BD3E90023511E0B4324D104E0BC
:102730002A490A20FFF770F9DFE7294B3C461D467E
:102740000FCD0FC495E803002060043421703B4690
:10275000194624481AF07EF84FF000024FF00003AB
:10276000CDE900234FF000024FF000034FF00100CD
:102770004FF0000114F00EF81AF004F9FEF776FCA1
:10278000194818F0D7FE19490A20FFF745F900BF8C
:102790001837BD46B0BD00BFD80E0020343B012025
:1027A000E03C0120C00E0020C80E002024170020AD
:1027B00028A300206C3B012054380120BC380120A4
:1027C0001C000020B02602084C3C0120D82602083C
:1027D000FC2602080027020818170020E826020835
:1027E0002027020848380120B83B012008270208AA
:1027F00080B5B2B000AF03F0EBF802463A4BA3FB52
:1028000002135B0B42F2107101FB03F3D31A002B8E
:1028100011D1364B1B68052B08DD35490A20FFF71F
:10282000FBF800F0A3F9314B00221A602F4B1B6814
:1028300001332E4A13602F4B1B68062B04DD18F062
:102840006FFC2C4B00221A602B4B1B68012B0AD10A
:102850002A4800F0F1FB2A4B01221A7000F05CFBC1
:10286000254B00221A6000F05FF90346002B1DD0B3
:1028700000233B603B1DC422002118461CF0D8FAFF
:102880003B4619461F4815F0E5F90346002B06D0D4
:102890003B461A461C490A20FFF7BEF803E01B49D5
:1028A0000A20FFF7B9F8002000F02EF919F0B6FF62
:1028B0000346002B01D000F037F815F0A5F90346C8
:1028C000002B0AD001220421114808F0D3FF18F090
:1028D00003F8002015F0A4F901E000F01DFB00BF93
:1028E000C837BD4680BD00BF5917B7D1D00E0020F4
:1028F00038270208D40E0020302F01205427020868
:102900002D2F0120402F0120582702087027020890
:10291000000C024280B500AF024800F08DFB00BF02
:1029200080BD00BF8027020880B582B000AFC821FB
:102930003A48FFF7C9F83949002019F0ABFE37488B
:10294000FDF7B0FC0346062B57D94FF4FA71344813
:10295000FFF7BAF8324A33493048FFF7C3F8C821C5
:102960002E48FFF7B1F82D4A2F490A20FFF754F8F7
:102970002A492E4815F06EF90346002B09D1C821CB
:102980002648FFF7A1F8254B294A07CA83E8070024
:102990000AE022481CF070FA03467B607B68254AF7
:1029A00025491E481CF0E8F824481CF065FA034647
:1029B0003B604FF4FA711A48FFF786F8184A20492D
:1029C0003868FFF78FF815491E4819F093FE144B2D
:1029D00093F86630002B0AD00A2200211A481CF016
:1029E00027FA194B0E4A683207CA03C31A80134AE2
:1029F00016490A20FFF710F803E015490A20FFF7EF
:102A00000BF8002019F016FF124B1B78002B01D099
:102A100016F00EFA0837BD4680BD00BF402F0120DA
:102A20005436012084270208882702081C37012019
:102A3000982702082C000020A4270208B83601209D
:102A4000B4270208BC36012048380120B827020804
:102A5000CC270208944D012080B400AF024B1846E9
:102A6000BD465DF8047B70470830012080B582B018
:102A700000AF78607B68002B08D010210548FFF775
:102A800023F8796803481CF030FB00E000BF0837EA
:102A9000BD4680BD2C00002080B588B000AF00236B
:102AA0003B6107F1140300221A605A60C3F8072043
:102AB00000233B603B1D00221A605A60C3F80720C8
:102AC0000E4BD3E9002338460D491CF055F80D4B49
:102AD000D3E9002307F1100009491CF04DF807F174
:102AE00010023B461146184616F04AF916F0A6FBAE
:102AF00000F012FA00BF2037BD4680BDC00E002096
:102B0000E4270208C80E002080B483B000AF03465B
:102B1000FB71044AFB79137000BF0C37BD465DF8AA
:102B2000047B70473D2F012080B400AF034B1B781E
:102B30001846BD465DF8047B704700BF3D2F01205D
:102B400080B582B000AF7860C8210748FEF7BCFFAF
:102B5000796805481CF0C9FA0120FFF7D5FF00BFCE
:102B60000837BD4680BD00BF402F012080B582B030
:102B700000AFFEF765FD03465AB2414B1A70404B59
:102B800093F90030B3F1FF3F06D13E490A20FEF72A
:102B900043FF3B4B00221A7014213B48FEF794FF81
:102BA00014213A48FEF790FF14213948FEF78CFFB4
:102BB00014213848FEF788FF364B354A33493248EE
:102BC000FEF7DEFD0346FB71FB7983F00103DBB208
:102BD000002B23D030490A20FEF71EFF2A4B2F4A34
:102BE0001268114619800233120C1A70274B2B4AB7
:102BF0001268114619800233120C1A70244B274AAE
:102C00001268114619800233120C1A70214B234AA4
:102C10001268114619800233120C1A701E212048C6
:102C2000FEF752FF1E48FEF743FD0346002B14BF7C
:102C300001230023FB711A48FDF734FB0346013BD7
:102C4000174A0021D154FB7983F00103DBB2002B3A
:102C50000FD014490A20FEF7DFFE114B0F4A12680D
:102C6000114619800233120C1A700F4B01225A7050
:102C700002E00D4B00225A7000BF0837BD4680BDF0
:102C800000360120EC270208183601200436012006
:102C90002C36012040360120002802081C2802089A
:102CA0004800002020280208A400002080B588B039
:102CB00006AF786039600B4B05930B4B04930B4BBD
:102CC00003930B4B02933B6801930A4B00930A4B0F
:102CD0000A4A0B4978681BF04FFF00BF0837BD4612
:102CE00080BD00BF3C0000202C00002028000020F8
:102CF000240000201C000020140000200C000020F4
:102D000038280208F0B595B010AFF860244B432284
:102D10001A7018F081F80346002B02D0204B4F2286
:102D20001A7018F069F806461E4B1B78BB601E4BE4
:102D30001B681846FDF722FC04460D461B4B1B681A
:102D40001846FDF71BFC02460B4615490978084654
:102D5000174991F90010796016490F9116490E91A3
:102D600016490D9116490C9116490B9116490A9175
:102D70001649099116490891796807910690CDE99D
:102D80000423CDE90245BB6800933346114A12493A
:102D9000F8681BF0F1FE00BF1437BD46F0BD00BF60
:102DA000660000203C2F0120342F0120382F012005
:102DB000003601208828020890280208942802087A
:102DC00098280208403601202C36012004360120C4
:102DD0001836012049000020542802082DE9F04F40
:102DE000A1B014AFF862B9627A623B62FB6AD3E9C0
:102DF00000014FF000024FF00003FDF77FFE034695
:102E0000002B18D1FB6AD3E904014FF000024FF008
:102E10000003FDF773FE0346002B0CD1FB6AD3E9D8
:102E200000232F49C1E90023FB6AD3E904232D497C
:102E3000C1E9002304E07A6A2B490A20FEF7ECFD81
:102E4000FB6A93F83430FB61254BD3E90089FB6AB8
:102E50001B7ABB61234BD3E900ABFB6A1B7E7B6112
:102E6000FB6ADB691846FDF789FBC7E90201FB6ACB
:102E70001E6AFB6A93F824303B61FB6A996A7960A9
:102E8000FB6ADB6A1846FDF779FB04460D46FB6AD0
:102E90001B6B1846FDF772FB02460B46CDE9122369
:102EA000CDE9104579680E9139690D910C9697ED31
:102EB000027B8DED0A7B79690891CDE906ABB96992
:102EC0000491CDE902897B6A00933B6AFA6907495C
:102ED000B86A1BF051FE00BF3437BD46BDE8F08F25
:102EE000C00E0020C80E0020A0280208C02802083A
:102EF00080B582B000AF786040210648FEF7E4FD5F
:102F00004022796803481CF006F900BF0837BD4627
:102F100080BD00BFD80E002080B582B000AF3F4812
:102F2000FDF7C0F903467B603D4B1B78002B45D075
:102F30004FF480613B48FEF7C7FD3B4B03F5004370
:102F4000D3F8003C002B39DB36493748FEF770FFD9
:102F500016E04FF480613548FEF7B6FD334932483C
:102F6000FEF766FF7B681433304A4821D1542F485E
:102F7000FDF798F903461A462C492D48FEF71AFF2B
:102F8000294B03F50043D3F8003C002BE1DA254838
:102F900019F050FE0346002B0DD17B681433214AF3
:102FA0004821D1541F48FDF77DF903461A461D49B3
:102FB0001F48FEF7FFFE1A4B00221A701D4B1B78AC
:102FC000002B26D01A4B03F50043D3F8003C002B0E
:102FD0001FDB4FF480611348FEF776FD114914485A
:102FE000FEF726FF0F4819F025FE0346002B0DD1F2
:102FF0007B6814330B4A4821D1540A48FDF752F933
:1030000003461A4607490A48FEF7D4FE094B002238
:103010001A7000BF0837BD4680BD00BF1C000020ED
:103020002D2F0120180F0020241700201813002036
:1030300028A300202C2F012090B5ADF6B42D00AFB1
:1030400007F52B63A3F6AC2318604FF480620021D0
:10305000A4481BF0EDFE07F52B63A3F6AC2319681B
:10306000A048FFF723FE0023C7F8A03A07F6A423E1
:1030700000210A461A800A469A700023C7F8943A3B
:1030800007F6982300221A601A7107F52A6207F6DC
:1030900094231146184617F039FF4FF4FA719248FD
:1030A000FEF712FD07F6942307F52A628E498F4832
:1030B000FFF794FE8C498B481BF0C2FE4FF4FA7266
:1030C000002189481BF0B4FE894B4FF000021A60C2
:1030D000884B00221A70864817F0DAFD0346002B51
:1030E0000CD0834BD3ED007AB1EE0C7AF4EEC77AB4
:1030F000F1EE10FA02DD7F4B01221A707E4B4FF089
:1031000000021A607C4817F01BFE7748FFF7FAFDB3
:10311000754974481BF094FE4FF4FA72002172480E
:103120001BF086FE07F6EC031846FDF789FF07F54E
:103130002B63A3F6842300221A60043340F6BC02FA
:10314000002118461BF074FE0023C7F8AC3A73E068
:1031500007F52B63A3F6A42300221A600433002290
:103160001A605A609A60DA601A615A619A6107F5CA
:103170002B63A3F5E271D7F8AC2A13465B00134426
:103180009B000B441B881A4607F10C035B49184649
:103190001BF0F2FC002387F8AB3A22E007F10C03A6
:1031A0001846FDF77FF8024607F10C039C1897F8C4
:1031B000AB1A07F52B63A3F5E270D7F8AC2A1346D8
:1031C0005B0013449B0003440B4402331B781A46F4
:1031D0004B4920461BF0D0FC97F8AB3A013387F8F7
:1031E000AB3A97F8AB3A072BD8D9D7F8AC3A5A1C78
:1031F00007F52B63A3F5E273D3F8A4319A420ED0FE
:1032000007F10C031846FDF74DF803461A4607F17F
:103210000C0313443B491A460B461B88138007F1E5
:103220000C0207F12C03114618461BF009FED7F8D3
:10323000AC3A0133C7F8AC3A07F52B63A3F5E27358
:10324000D3F8A431D7F8AC2A9A4281DB07F12C03DA
:10325000194624481BF0F4FD2248FDF723F80346E5
:103260001A46204B1344284A106818601D48FDF781
:1032700019F803461B4A1344244A12682449184685
:103280001BF07AFC1748FDF70DF80346013B194681
:10329000204814F073FC034687F8AA3A1148FDF75A
:1032A00001F803460F4A134497F8AA2A1A49184608
:1032B0001BF062FC0B4A1949E820FEF7ADFB0948F8
:1032C000FCF7F0FF03461A4606491548FEF772FD63
:1032D0000E4B1B6801330D4A136000BF07F6B4277D
:1032E000BD4690BD003201200C300120D80E0020D8
:1032F000342F01203C2F0120382F0120F428020810
:10330000FC280208042902080829020804000020F9
:103310000C2902080132012010290208182902088C
:103320002417002080B582B000AF78607B681B68EE
:103330003E4A934209D13E4B1B6801333C4A13601D
:103340003C4B1B6801333B4A1360394B1B681846E2
:1033500018F02EF817F070FC0346002B62D1344BA6
:103360001A68354B1B68642101FB03F392FBF3F3EE
:10337000002B2ADD14F048FC0346002B06D12F4B0E
:1033800000221A702E48FFF757FE02E02B4B012255
:103390001A70274B00221A6017F02EFD0346002BEF
:1033A00010D1284B1B68002B06D1274B1B78002B14
:1033B00002D02648FFF740FE224B1B680133214A0A
:1033C000136002E01F4B00221A601A4B1A681A4B56
:1033D0001B68642101FB03F392FBF3F3002B08DD70
:1033E0001B4B01221A701B4B00221A70114B00223A
:1033F0001A60114B1B68033B642203FB02F20D4B66
:103400001B689A420ADB124B1B7883F00103DBB284
:10341000002B03D00F4B01221A7004E00D4B002249
:103420001A7000E000BF0837BD4680BD00100040A4
:10343000B40E0020B80E002008000020A4000020D8
:103440002C290208D40E0020201700203029020861
:103450002D2F01202C2F012080B582B000AF786085
:103460007B681B68044A934201D119F07DF800BFC4
:103470000837BD4680BD00BF0050004080B582B017
:1034800000AF78607B681B68084A934202D119F04C
:103490004FF806E07B681B68054A934201D1FEF7AE
:1034A00051FA00BF0837BD4680BD00BF0050004044
:1034B0000038014080B582B000AF78600B467B8059
:1034C0007B681B680C4A934212D07B681B680B4ACE
:1034D000934204D17B881846FEF742FA08E07B68E5
:1034E0001B68074A934203D17B881846FEF790FB7E
:1034F00000BF0837BD4680BD005000400038014085
:103500000064004080B483B000AF7860044A7B68F8
:10351000136000BF0C37BD465DF8047B704700BFE9
:10352000080000202DE9B04F86B000AF00233B61BA
:1035300000237B610023BB600023FB6000233B6012
:1035400000237B6007F1100308221946164813F088
:103550006FF807F1080308221946144813F068F8B9
:103560003B4608221946124813F062F83B7CDBB256
:1035700000229A4693460F4BC3E900AB3B7ADBB27D
:103580000022984691460C4BC3E900893B78DBB298
:1035900000221C461546094BC3E9004500BF1837F9
:1035A000BD46BDE8B08F00BF008016081080160829
:1035B00020801608B0390120B839012018170020E2
:1035C00080B588B000AF3B462022002118461BF092
:1035D0002FFC2B4B2B4A1A60294B4FF480225A6048
:1035E000274B00229A60264B0022DA60244B0022EF
:1035F0001A61234B04225A61214B00221A76204B78
:1036000000225A761E4B0122DA611D4B002283F8FC
:1036100020201B4B00229A62194B0022DA62184BC1
:10362000002283F83420164B00221A63144B002228
:103630009A63134B002283F83C20114802F098FC57
:103640000346002B01D001F09AF80F4B3B60062394
:103650007B600023BB607F23FB6004233B6100236E
:103660007B613B461946064802F0AAFF0346002B41
:1036700001D001F084F800BF2037BD4680BD00BFF7
:1036800054380120008002420200300480B588B026
:1036900000AF3B462022002118461BF0C9FB2B4BF4
:1036A0002B4A1A60294B4FF480225A60274B002284
:1036B0009A60264B0022DA60244B00221A61234BC9
:1036C00004225A61214B00221A76204B00225A769E
:1036D0001E4B0122DA611D4B002283F820201B4B78
:1036E00000229A62194B0022DA62184B002283F8FA
:1036F0003420164B00221A63144B00229A63134B9A
:10370000002283F83C20114802F032FC0346002BD3
:1037100001D001F034F80F4B3B6006237B6000239F
:10372000BB607F23FB6004233B6100237B613B463E
:103730001946064802F044FF0346002B01D001F071
:103740001EF800BF2037BD4680BD00BFBC38012039
:10375000008102420004002A80B5D0B000AF07F516
:10376000A073A3F59E73186007F5967300221A6084
:103770005A609A60DA601A6107F5A073A3F5907336
:1037800018464FF484731A4600211BF051FB07F5CD
:10379000A073A3F59E731B681B687D4A934240F09B
:1037A000888007F5A073A3F590714FF400124FF0D5
:1037B0000003C1E9002307F5A073A3F5907300226D
:1037C000C3F8D42007F12003184609F0E9F80346AE
:1037D000002B01D000F0D3FF6E4B1B6801336D4A04
:1037E00013606C4B1B68012B16D16B4BD3F88C30DC
:1037F000694A43F48063C2F88C30674BD3F88C304D
:1038000003F4806207F5A073A3F592731A6007F5BD
:10381000A073A3F592731B685F4BD3F88C305E4A9C
:1038200043F00403C2F88C305B4BD3F88C3003F0C8
:10383000040207F5A073A3F594731A6007F5A0734B
:10384000A3F594731B68544BD3F88C30524A43F061
:103850000103C2F88C30504BD3F88C3003F00102D6
:1038600007F5A073A3F596731A6007F5A073A3F587
:1038700096731B680123C7F82C310323C7F8303136
:103880000023C7F8343107F596731946434807F00B
:103890009FFE0223C7F82C310323C7F830310023E1
:1038A000C7F8343107F5967319463D4807F090FE86
:1038B00069E007F5A073A3F59E731B681B68394A7E
:1038C000934260D107F5A073A3F590714FF40012F5
:1038D0004FF00003C1E9002307F5A073A3F590732F
:1038E0000022C3F8D42007F12003184609F058F845
:1038F0000346002B01D000F042FF264B1B6801332A
:10390000244A1360234B1B68012B16D1224BD3F89A
:103910008C30214A43F48063C2F88C301E4BD3F8BC
:103920008C3003F4806207F5A073A3F598731A60D6
:1039300007F5A073A3F598731B68174BD3F88C3069
:10394000154A43F00403C2F88C30134BD3F88C3083
:1039500003F0040207F5A073A3F59A731A6007F544
:10396000A073A3F59A731B680123C7F82C310323B6
:10397000C7F830310023C7F8343107F5967319467C
:10398000064807F025FE00BF07F5A077BD4680BDBD
:103990000080024224390120000C02440008024247
:1039A000000002420081024280B582B000AF786020
:1039B0007A6813465B0113440B4A13440B491846BB
:1039C00000F042F80A4B094ADA607A6813465B0154
:1039D0001344054A13441A4606496420FEF71CF8AE
:1039E00000BF0837BD4680BD684A01202839012044
:1039F000383901203429020880B582B000AF7860E0
:103A00007A6813465B0113440B4A13440B4918466A
:103A100000F01AF80A4B094ADA607A6813465B012B
:103A20001344054A13441A4606496420FDF7F4FF7F
:103A300000BF0837BD4680BDCC4A0120283901208F
:103A4000383901204829020880B586B000AF786077
:103A500039607868FCF726FC0346FB6000237B6135
:103A600000233B6110E07B697A68D0183B699B00BA
:103A70003A6813441A4609491BF09EF87B690833DB
:103A80007B613B6901333B617A69FB689A42EADBFF
:103A900000BF00BF1837BD4680BD00BF58290208CF
:103AA00080B500AF124B134A1A60114B00225A60C6
:103AB0000F4B00229A600E4B0F4ADA600C4B00222B
:103AC0005A610B4B00225A62094B00229A62084B42
:103AD0000022DA62064B00221A63054803F0F4FE66
:103AE0000346002B01D000F04AFE00BF80BD00BF9E
:103AF0003839012000000C42A039012080B485B083
:103B000000AF78607B681B680B4A93420ED10B4B69
:103B1000D3F88C30094A43F48033C2F88C30074B19
:103B2000D3F88C3003F48033FB60FB6800BF14379C
:103B3000BD465DF8047B704700000C42000C024457
:103B400080B500AF124B134A1A60114B01221A7153
:103B50000F4B01225A710E4B07229A600C4B102218
:103B6000DA600B4B00221A61094B00225A61084BA4
:103B700000229A61064B01221A62054803F09EFC5E
:103B80000346002B01D000F0FAFD00BF80BD00BF4E
:103B9000C03901200030024080B485B000AF7860A9
:103BA0007B681B680B4A93420ED10B4BD3F88830CD
:103BB000094A43F48053C2F88830074BD3F8883061
:103BC00003F48053FB60FB6800BF1437BD465DF80B
:103BD000047B704700300240000C024480B586B080
:103BE00000AF4E4B4E4A1A604C4B00225A604B4B72
:103BF00000229A60494B0022DA60484B01221A7475
:103C0000464B00225A74454B01229A74434B0122C1
:103C10005A61424B0D229A61404B5622DA613F4B6A
:103C20000D221A623D4B04225A623C4B09229A62D1
:103C30003A4B0F22DA62394B09221A63374B0022C2
:103C40005A63364B00229A63344B0022DA633348BE
:103C500006F01CFC0346002B01D000F090FD3B4613
:103C600000221A605A609A60DA601A615A612D4B1C
:103C700040F223121A602B4B4FF080425A60294BBE
:103C800000229A60274B0822DA60264B00221A6134
:103C9000244B00225A61234B00229A61214B0022BF
:103CA000DA61204B00221A624FF080433B6001230F
:103CB0007B600023BB600123FB604FF400633B612A
:103CC00040F635037B613B461946144806F038FD43
:103CD0000346002B01D000F052FD104806F08AFD8B
:103CE0000346002B01D000F04AFD002201210B48C1
:103CF00006F0B0FE0346002B01D000F040FD00228C
:103D00004FF40071054806F0A5FE0346002B01D0D4
:103D100000F035FD00BF1837BD4680BD543A012084
:103D200000A400400C3A012080B586B000AF4E4B95
:103D30004E4A1A604C4B00225A604B4B00229A604C
:103D4000494B0022DA60484B01221A74464B00228C
:103D50005A74454B01229A74434B01225A61424BDB
:103D60000D229A61404B5622DA613F4B0D221A62B6
:103D70003D4B04225A623C4B09229A623A4B0F2275
:103D8000DA62394B09221A63374B00225A63364BE9
:103D900000229A63344B0022DA63334806F076FB44
:103DA0000346002B01D000F0EAFC3B4600221A60DB
:103DB0005A609A60DA601A615A612D4B4FF40D72A5
:103DC0001A602B4B4FF080425A60294B00229A60B8
:103DD000274B0822DA60264B00221A61244B00226E
:103DE0005A61234B00229A61214B0022DA61204B59
:103DF00000221A624FF080433B6001237B60002366
:103E0000BB600123FB604FF400633B6140F6350368
:103E10007B613B461946144806F092FC0346002B92
:103E200001D000F0ACFC104806F0E4FC0346002B87
:103E300001D000F0A4FC002201210B4806F00AFE8C
:103E40000346002B01D000F09AFC00224FF40071D1
:103E5000054806F0FFFD0346002B01D000F08FFC63
:103E600000BF1837BD4680BDB83A012000A8004009
:103E7000303A012080B58CB000AF786007F11C03A8
:103E800000221A605A609A60DA601A617B681B68C7
:103E9000464A934240D1464B1B680133444A136063
:103EA000434B1B68012B0ED1424BD3F8A030414A43
:103EB00043F40073C2F8A0303E4BD3F8A03003F4B3
:103EC0000073BB61BB693B4BD3F88C30394A43F07C
:103ED0000103C2F88C30374BD3F88C3003F0010368
:103EE0007B617B694FF4C053FB6102233B6200237B
:103EF0007B620023BB620923FB6207F11C031946A6
:103F00002D4807F065FB00220021272003F0EBF984
:103F1000272003F002FA44E07B681B68274A93429B
:103F20003FD1234B1B680133214A1360204B1B6890
:103F3000012B0ED11F4BD3F8A0301E4A43F400735F
:103F4000C2F8A0301B4BD3F8A03003F400733B61E0
:103F50003B69184BD3F88C30164A43F00203C2F881
:103F60008C30144BD3F88C3003F00203FB60FB68F9
:103F70004FF44053FB6102233B6200237B6200232A
:103F8000BB620923FB6207F11C0319460C4807F0CA
:103F90001FFB002200216D2003F0A5F96D2003F026
:103FA000BCF900BF3037BD4680BD00BF00A4004053
:103FB0001C3B0120000C02440000024200A800400B
:103FC0000004024280B582B000AF0D4BD3F88830B8
:103FD0000B4A43F00103C2F88830094BD3F888300C
:103FE00003F001037B607B68002200211F2003F0A7
:103FF0007AF91F2003F091F900BF0837BD4680BD54
:10400000000C024480B400AF044BDB681B0A03F0D1
:1040100007031846BD465DF8047B704700ED00E0DD
:1040200080B483B000AF0346FB80B7F90630002BA5
:104030000BDBFB8803F01F020749B7F906305B0969
:10404000012000FA02F241F8232000BF0C37BD46E0
:104050005DF8047B704700BF00E100E080B483B0EE
:1040600000AF03463960FB80B7F90630002B0ADB4E
:104070003B68DAB20C49B7F906301201D2B20B44F0
:1040800083F800230AE03B68DAB20849FB8803F0B2
:104090000F03043B1201D2B20B441A7600BF0C3757
:1040A000BD465DF8047B704700E100E000ED00E0F4
:1040B00080B489B000AFF860B9607A60FB6803F043
:1040C0000703FB61FB69C3F10703042B28BF04232B
:1040D000BB61FB690433062B02D9FB69033B00E09B
:1040E00000237B614FF0FF32BB6902FA03F3DA432E
:1040F000BB681A407B699A404FF0FF317B6901FA37
:1041000003F3D9437B680B40134318462437BD465D
:104110005DF8047B704780B48BB000AFF860B96085
:104120007A60FB681A68BB687B617B6993FAA3F3CA
:104130003B613B69BB61BB69002B01D1202303E0DC
:10414000BB69B3FA83F3DBB25B00032101FA03F32B
:10415000DB431A40BB683B623B6A93FAA3F3FB6103
:10416000FB697B627B6A002B01D1202303E07B6A21
:10417000B3FA83F3DBB25B00796801FA03F31A4305
:10418000FB681A6000BF2C37BD465DF8047B7047A2
:1041900080B48BB000AFF860B9607A60FB68DA6811
:1041A000BB687B617B6993FAA3F33B613B69BB61AD
:1041B000BB69002B01D1202303E0BB69B3FA83F371
:1041C000DBB25B00032101FA03F3DB431A40BB6857
:1041D0003B623B6A93FAA3F3FB61FB697B627B6AF8
:1041E000002B01D1202303E07B6AB3FA83F3DBB217
:1041F0005B00796801FA03F31A43FB68DA6000BFD9
:104200002C37BD465DF8047B704780B483B000AFA7
:10421000786039607B683A689A6100BF0C37BD46A8
:104220005DF8047B704780B483B000AF786039607C
:104230007B683A689A6200BF0C37BD465DF8047B24
:104240007047000080B483B000AF78603960104AD6
:104250003B6803F00303183352F823203B681B0C20
:104260000F2101FA03F3DB4302EA03013B681B0C55
:104270007A689A4006483B6803F003030A43183300
:1042800040F8232000BF0C37BD465DF8047B704723
:104290000020024480B485B000AF78600A4BD3F8A8
:1042A0008C2009497B681343C1F88C30064BD3F846
:1042B0008C207B681340FB60FB6800BF1437BD4651
:1042C0005DF8047B704700BF000C024480B58AB0E3
:1042D00000AF07F11C0300221A605A609A603B1D70
:1042E00000221A605A609A60DA601A615A610420EA
:1042F000FFF7D0FF0120FFF7CDFF0220FFF7CAFF35
:104300000820FFF7C7FF02216E48FFF77EFF4FF43A
:1043100000416D48FFF779FF04216B48FFF783FFE9
:1043200044F298516948FFF77EFF4FF440716548A9
:10433000FFF779FF04216648FFF775FF40F202336B
:104340007B600123BB600023FB6000233B610023F3
:104350007B613B1D19465B4811F02DFB01237B60FF
:104360000023BB6000237B613B1D1946564811F0BA
:1043700022FB04237B600123BB600023FB6000233E
:104380003B6100237B613B1D19464F4811F013FB35
:1043900044F298537B600123BB600023FB60002341
:1043A0003B6100237B613B1D1946484811F003FB2C
:1043B0004FF400437B600123BB600323FB600023B9
:1043C0003B6100237B613B1D19463F4811F0F3FA26
:1043D00004237B600123BB600023FB6000233B615F
:1043E00000237B613B1D1946394811F0E4FA394935
:1043F0000120FFF727FF02210020FFF723FF4FF4E2
:104400000043FB6100233B62012387F82430002333
:1044100087F82530022387F8263007F11C03184659
:1044200011F08EF84FF48073FB6100233B6201238F
:1044300087F82430002387F82530022387F82630B8
:1044400007F11C03184611F07BF800224FF40041DD
:104450001E48FFF79DFE00224FF480711A48FFF7B7
:1044600097FE00224FF400411848FFF754FE002247
:104470004FF480711448FFF74EFEFFF7C3FD03466B
:10448000002200211846FFF713FE034619461320A9
:10449000FFF7E4FD1320FFF7C3FDFFF7B3FD03466D
:1044A000002200211846FFF703FE034619461A2092
:1044B000FFF7D4FD1A20FFF7B3FD00BF2837BD4634
:1044C00080BD00BF00080242000002420004024218
:1044D000000C02420300180080B500AF002007F076
:1044E000E1F90346002B01D000F049F907F0FAF991
:1044F0000346002B01D000F042F900BF80BD000050
:1045000080B500AF0D4B0E4A1A600C4B08225A6062
:104510000A4B40F6FF72DA60084B40F6A5629A60DB
:10452000064B00221A61054807F0ECF90346002B00
:1045300001D000F024F900BF80BD00BF203B012066
:104540000030004080B500AF1C4B4FF000629A6015
:1045500001F08CF900F036F800F0A6F8FFF7B6FE8F
:10456000FFF73CFB00F012F9FFF72CFD00F054FEC2
:10457000FFF7B2FF00F0E8FE00F09AFEFFF7D4FB71
:1045800000F0ECFDFFF78CFAFFF7DAFA00F030FAF2
:10459000FEF75EF8FFF714F8FFF778F816F050FE14
:1045A000FFF7AEFF16F056FDFEF77CF8044807F063
:1045B00031FAFEF71DF900BFF8E700BF00ED00E09B
:1045C000203B012080B59CB000AF07F120035022B2
:1045D000002118461AF02CFC07F1080300221A608B
:1045E0005A609A60DA601A615A612E4B1B692D4A33
:1045F00023F0300313612B4B1B6903F030037B6006
:104600007B6800BF274B5B6903F00803082BF9D1D7
:104610001A233B620123FB6200233B6340237B633D
:104620004FF08063BB634FF48073FB6320233B64D4
:104630000223BB640123FB6404233B6508237B65E1
:104640000223BB650223FB6502233B660C237B66CA
:104650000023BB660023FB6607F12003184607F022
:1046600025FA0346002B01D000F089F81F23BB6018
:104670000323FB6008233B6100237B610023BB61B4
:104680000023FB6107F108030321184607F046FEEB
:104690000346002B01D000F072F800BF7037BD4612
:1046A00080BD00BF0008024480B5C2B000AF07F56E
:1046B0008473A3F5847318464FF484731A4600215B
:1046C0001AF0B6FB07F58473A3F584714FF400125A
:1046D0004FF00403C1E9002307F58473A3F5847345
:1046E00002229A6007F58473A3F584730122DA60CD
:1046F00007F58473A3F5847332221A6107F5847376
:10470000A3F5847302225A6107F58473A3F58473B9
:1047100004229A6107F58473A3F584730222DA6197
:1047200007F58473A3F5847308221A6207F584736E
:10473000A3F5847300225A6207F58473A3F584738A
:1047400000229A6207F58473A3F584734FF4003254
:10475000DA6207F58473A3F584734FF40072C3F82B
:10476000BC203B46184608F01BF90346002B01D03D
:1047700000F005F800BF07F58477BD4680BD80B422
:1047800000AF72B600BF00BFFDE7000080B588B083
:1047900000AF3B1D00221A605A609A60DA601A610D
:1047A0005A619A611E4B1F4A1A601D4B00225A60C3
:1047B0001B4B7F229A601A4BFF22DA60184B0022B3
:1047C0001A61174B00225A61154B00229A61144B53
:1047D0004FF08042DA61124B00221A62104B002225
:1047E0005A620F480DF02EF90346002B01D0FFF757
:1047F000C6FF00237B6000233B6100237B61002315
:10480000BB613B1D194606480DF008FD0346002B11
:1048100001D0FFF7B4FF00BF2037BD4680BD00BF09
:10482000343B01200078004480B5C6B000AF07F5E6
:104830008C73A3F58A73186007F58C73A3F58473E2
:1048400018464FF484731A4600211AF0F1FA07F55E
:104850008C73A3F58A731B681B68254A934242D167
:1048600007F58C73A3F584714FF000724FF00003CD
:10487000C1E9002307F58C73A3F584734FF400722C
:10488000C3F8F82007F11003184608F089F803462A
:10489000002B01D0FFF773FF164BD3F8F030154A09
:1048A00043F40043C2F8F030124BD3F8A830114A59
:1048B00043F40013C2F8A8300E4BD3F8A83003F429
:1048C000001207F58C73A3F586731A6007F58C73D5
:1048D000A3F586731B6800220021022002F003FD6D
:1048E000022002F01AFD00BF07F58C77BD4680BD9F
:1048F00000780044000C024480B483B000AF7860BC
:104900007B681B6843F001027B681A6000BF0C37AC
:10491000BD465DF8047B704780B483B000AF78601B
:104920007B681B6843F400727B681A6000BF0C3719
:10493000BD465DF8047B704780B483B000AF7860FB
:1049400039607B68DB6823F460123B681A437B683C
:10495000DA6000BF0C37BD465DF8047B704780B459
:1049600083B000AF78607B68DB6823F080427B68AF
:10497000DA6000BF0C37BD465DF8047B704700006D
:1049800080B485B000AF78600A4BD3F88C20094919
:104990007B681343C1F88C30064BD3F88C207B68BE
:1049A0001340FB60FB6800BF1437BD465DF8047B15
:1049B000704700BF000C024480B485B000AF78603F
:1049C0000A4BD3F89C2009497B681343C1F89C30FB
:1049D000064BD3F89C207B681340FB60FB6800BF4C
:1049E0001437BD465DF8047B704700BF000C0244DD
:1049F00080B5D2B000AF07F5907328220021184689
:104A00001AF016FA07F5847300221A605A609A6049
:104A1000DA601A615A6107F5A473A3F5A473184606
:104A20004FF484731A4600211AF002FA07F5A473B2
:104A3000A3F5A4714FF000524FF00003C1E9002329
:104A400007F5A473A3F5A4730022C3F8E8203B463E
:104A5000184607F0A5FF0346002B01D0FFF78FFE95
:104A60004FF40040FFF7A8FF0420FFF789FF4FF441
:104A7000E053C7F808310223C7F80C310023C7F808
:104A800010310023C7F814310023C7F8183106236A
:104A9000C7F81C3107F5847319461F4810F08BFFC7
:104AA0000023C7F820314FF48003C7F824310723CF
:104AB000C7F828314FF00073C7F82C314FF08073DE
:104AC000C7F830314FF08063C7F834314FF0C0433E
:104AD000C7F838310023C7F83C310023C7F840310C
:104AE0000723C7F8443107F5907319460B4811F0B6
:104AF00023F800210948FFF71FFF0848FFF72FFFA1
:104B00000648FFF7F9FE0548FFF706FF00BF07F567
:104B1000A477BD4680BD00BF00080242003C0040B3
:104B200080B400AF00BFBD465DF8047B7047000055
:104B300080B483B000AF7860074B1A697B6813407C
:104B40007A689A4201D1012300E0002318460C370D
:104B5000BD465DF8047B70470020024480B483B0FA
:104B600000AF7860044A7B68136100BF0C37BD4614
:104B70005DF8047B704700BF0020024480B483B01E
:104B800000AF7860074BDA687B6813407A689A4216
:104B900001D1012300E0002318460C37BD465DF823
:104BA000047B70470020024480B483B000AF78607B
:104BB000044A7B68D36000BF0C37BD465DF8047BB8
:104BC000704700BF0020024480B400AF00BFFDE783
:104BD00080B5CAB004AF1E4BDB6AC7F814311C4B5A
:104BE0009B6ADBB2C7F81031194B9B6A1B0ADBB218
:104BF000C7F80C31164B9B6A1B0CDBB2C7F80831A7
:104C000007F58C73A3F58A7300221A600433FC2223
:104C1000002118461AF00CF9381DD7F80831029314
:104C2000D7F80C310193D7F810310093D7F814312D
:104C3000084A4FF4807119F06BFFC7F804013B1D5F
:104C400019460A20FCF7E8FE02F083FB00BFFDE7EF
:104C500000ED00E05C29020880B5C2B000AF114B46
:104C60009B6ADBB2C7F8043107F58473A3F582733E
:104C700000221A600433FC22002118461AF0D8F8EA
:104C8000381DD7F80431084A4FF4807119F040FFFD
:104C90003B1D19460A20FCF7BFFE02F05AFB00BF7D
:104CA000FDE700BF00ED00E0AC29020880B5C2B00E
:104CB00000AF114B9B6A1B0ADBB2C7F8043107F542
:104CC0008473A3F5827300221A600433FC2200214E
:104CD00018461AF0ADF8381DD7F80431074A4FF4DA
:104CE000807119F015FF3B1D19460A20FCF794FE50
:104CF00002F02FFB00BFFDE700ED00E0E029020815
:104D000080B5C2B000AF114B9B6A1B0CDBB2C7F879
:104D1000043107F58473A3F5827300221A6004330B
:104D2000FC22002118461AF083F8381DD7F8043108
:104D3000074A4FF4807119F0EBFE3B1D19460A201B
:104D4000FCF76AFE02F005FB00BFFDE700ED00E0A6
:104D5000082A020880B400AF00BFBD465DF8047B9E
:104D6000704780B400AF00BFBD465DF8047B70475C
:104D700080B400AF00BFBD465DF8047B704780B5CE
:104D800000AF00F011FE00BF80BD000080B500AF95
:104D900004480DF01FFA06F079FE02480DF0F0F914
:104DA00000BF80BD343B012080B500AF17F0F4FC9C
:104DB0004FF48070FFF7BCFE0346002B03D04FF486
:104DC0008070FFF7CBFE00BF80BD80B500AF4FF411
:104DD0000040FFF7ADFE0346002B03D04FF4004028
:104DE000FFF7BCFEFDF796FD00BF80BD80B500AFAC
:104DF000024804F007FA00BF80BD00BFB03D0120AB
:104E000080B500AF044B00221A60044805F008FF8B
:104E100006F03CFE00BF80BDD40E0020543A0120B5
:104E200080B500AF02480DF02DFB00BF80BD00BF74
:104E30006C3B012080B500AF03480EF0F3F8FCF79F
:104E4000BBFD00BF80BD00BF4C3C012080B500AF62
:104E500002480EF0E7F800BF80BD00BFB83B01205C
:104E600080B500AF02480EF0DDF800BF80BD00BF86
:104E7000E03C012080B500AF024805F0D1FE00BF44
:104E800080BD00BFB83A012080B500AF0D490A20AF
:104E9000FCF7C2FD0120FFF771FE0346002B0ED088
:104EA0000120FFF781FE084B01221A6006F0EEFD9B
:104EB0000B2002F040FA05490A20FCF7ADFD00BFC7
:104EC00080BD00BF302A0208302F01203C2A020892
:104ED00080B400AF01231846BD465DF8047B7047DF
:104EE00080B582B000AF786039601AF0D1F803461F
:104EF00016221A604FF0FF3318460837BD4680BDB2
:104F000080B582B000AF78604FF0FF317868FFF76E
:104F1000E7FF00BFFDE780B586B000AFF860B9607D
:104F20007A6000237B610AE0AFF300800146BB6832
:104F30005A1CBA60CAB21A707B6901337B617A6904
:104F40007B689A42F0DB7B6818461837BD4680BD07
:104F500080B586B000AFF860B9607A6000237B61ED
:104F600009E0BB685A1CBA601B781846AFF3008092
:104F70007B6901337B617A697B689A42F1DB7B68EC
:104F800018461837BD4680BD80B483B000AF786046
:104F90004FF0FF3318460C37BD465DF8047B704771
:104FA00080B483B000AF786039603B684FF4005242
:104FB0005A60002318460C37BD465DF8047B7047E5
:104FC00080B483B000AF7860012318460C37BD462B
:104FD0005DF8047B704780B485B000AFF860B960BD
:104FE0007A60002318461437BD465DF8047B70478D
:104FF00080B586B000AF7860144A154BD31A7B6138
:105000007B693B61134B1B68002B02D1114B124A89
:105010001A60104B1A687B6813443A699A4207D2A7
:105020001AF036F803460C221A604FF0FF3309E0FD
:10503000084B1B68FB60074B1A687B681344054AE2
:105040001360FB6818461837BD4680BD00000A2073
:1050500000040000643B0120E057012080B483B0CD
:1050600000AF364BD3F88830344A43F47003C2F8AB
:105070008830334B01221A60314B0022DA61304B09
:1050800000221A622E4B1A682D492E4B13400B60DA
:105090002B4B00229A622A4B0022DA62284B002214
:1050A0001A63274B284A5A63254B00229A63244BE4
:1050B000254ADA63224B00221A64214B224A5A64A1
:1050C0001F4B00229A641E4B1B681D4A23F4802349
:1050D00013601B4B00221A651C4B1B68174A43F0D8
:1050E000006393601A4B9B6903F060437B607B68AD
:1050F000B3F1604F03D07B68B3F1404F17D1144B2D
:10510000DB6903F00103002B05D0114B114ADA6073
:105110000F4B114ADA600E4BDB690D4A43F0020374
:10512000D3610B4BDB690A4A43F00103D36100BF33
:105130000C37BD465DF8047B704700BF00ED00E012
:10514000000C0244E3EAE2EA80020101683B01202C
:10515000002002403B2A19087F6E5D4C80B584B068
:1051600000AF3B1D00221A605A609A60144B154A2A
:105170001A60134B07225A60114B00229A60104BA1
:105180004CF24F32DA600E4B80229A610C480DF0DF
:1051900073F80346002B01D0FFF7F1FA00237B6080
:1051A0000023FB603B1D194605480DF00DFC03462E
:1051B000002B01D0FFF7E3FA00BF1037BD4680BDDA
:1051C0006C3B01200010004080B584B000AF7860D7
:1051D0007B681B680E4A934216D10E4BD3F89C3065
:1051E0000C4A43F01003C2F89C300A4BD3F89C30B1
:1051F00003F01003FB60FB6800220021312002F065
:1052000072F8312002F089F800BF1037BD4680BD2A
:1052100000100040000C024480B500AF224B234A2E
:105220001A60214B4FF4E1325A601F4B00229A6002
:105230001D4B0022DA601C4B00221A611A4B0C2213
:105240005A61194B00229A61174B0022DA61164B02
:1052500000221A62144B00225A62134B00229A62F7
:1052600011480DF0C7FC0346002B01D0FFF787FA69
:1052700000210D480FF00AFF0346002B01D0FFF775
:105280007EFA002108480FF03FFF0346002B01D0B3
:10529000FFF775FA04480FF085FE0346002B01D096
:1052A000FFF76DFA00BF80BDB83B01200050004001
:1052B00080B500AF224B234A1A60214B4FF4E132F4
:1052C0005A601F4B00229A601D4B0022DA601C4B73
:1052D00000221A611A4B0C225A61194B00229A6162
:1052E000174B0022DA61164B00221A62144B00227F
:1052F0005A62134B00229A6211480DF07BFC034660
:10530000002B01D0FFF73BFA00210D480FF0BEFE45
:105310000346002B01D0FFF732FA002108480FF0B6
:10532000F3FE0346002B01D0FFF729FA04480FF0E3
:1053300074FE0346002B01D0FFF721FA00BF80BDA9
:105340004C3C01200038014080B500AF234B244A7B
:105350001A60224B4FF4E1325A60204B00229A60CF
:105360001E4B0022DA601D4B00221A611B4B0C22DF
:105370005A611A4B00229A61184B0022DA61174BCE
:1053800000221A62154B00225A62144B00229A62C4
:1053900012480DF02FFC0346002B01D0FFF7EFF968
:1053A00000210E480FF072FE0346002B01D0FFF7DC
:1053B000E6F94FF0206109480FF0A6FE0346002BE6
:1053C00001D0FFF7DCF905480FF0ECFD0346002B98
:1053D00001D0FFF7D4F900BF80BD00BFE03C012041
:1053E0000064004080B5EAB000AF07F5D473A3F5C0
:1053F000D273186007F5CA7300221A605A609A6067
:10540000DA601A6107F594736C220021184619F0CE
:105410000FFD07F5D473A3F5C47318464FF48473D6
:105420001A46002119F004FD07F5D473A3F5D273D1
:105430001B681B68B24A934240F0F18007F5D473B1
:10544000A3F5C4714FF010024FF00003C1E900232F
:1054500007F5D473A3F5C4734FF44052DA6607F12D
:105460002003184607F09CFA0346002B01D0FFF7F3
:1054700086F9A44BD3F89C30A24A43F48013C2F8B7
:105480009C30A04BD3F89C3003F4801207F5D47302
:10549000A3F5C6731A6007F5D473A3F5C6731B682A
:1054A000984BD3F88C30974A43F00203C2F88C3003
:1054B000944BD3F88C3003F0020207F5D473A3F5B4
:1054C000C8731A6007F5D473A3F5C8731B6860230B
:1054D000C7F894310223C7F898310023C7F89C31EC
:1054E0000023C7F8A0310E23C7F8A43107F5CA730B
:1054F0001946854806F06CF82123C7F828311D238A
:10550000C7F82C310023C7F830310023C7F83431F5
:105510000023C7F838314FF40023C7F83C3100238B
:10552000C7F840310023C7F844310123C7F84C3194
:105530000123C7F850310023C7F854310023C7F8BE
:1055400058310023C7F85C310023C7F86C310023C1
:10555000C7F860310023C7F8643107F594736B49CD
:10556000184604F0D1F90346002B01D0FFF707F9E4
:10557000664A0021664804F0DDF90346002B01D09D
:10558000FFF7FDF8624804F09EFA0346002B01D0B5
:10559000FFF7F5F85F4B604A1A605E4B4FF440022C
:1055A0009A635C4B0022DA635A4B00221A64594B0F
:1055B00000225A64574B81229A64564803F0E4FF54
:1055C0000346002B01D0FFF7DAF85149514804F0A7
:1055D000DBFA0346002B01D0FFF7D1F807F5D473AF
:1055E000A3F5D2731B684B4AC3F88020494A07F5DC
:1055F000D473A3F5D2731B68D3651021454803F01B
:1056000062FF0346002B01D0FFF7B9F8002200210A
:105610003E2001F068FE3E2001F07FFEF1E007F53C
:10562000D473A3F5D2731B681B683C4A934279D1AB
:1056300007F5D473A3F5C4714FF001024FF00003D6
:10564000C1E9002307F5D473A3F5C4730322DA6517
:1056500007F12003184607F0A3F90346002B01D0F9
:10566000FFF78DF8274BD3F8A430264A43F4804344
:10567000C2F8A430234BD3F8A43003F4804207F5DA
:10568000D473A3F5CA731A6007F5D473A3F5CA736C
:105690001B681C4BD3F88C301A4A43F00103C2F844
:1056A0008C30184BD3F88C3003F0010207F5D4731B
:1056B000A3F5CC731A6007F5D473A3F5CC731B68FC
:1056C0004FF4C063C7F894310223C7F89831002320
:1056D000C7F89C310023C7F8A0310723C7F8A431CD
:1056E00007F5CA7319460E4805F072FF0022002123
:1056F0003A2001F0F8FD3A2001F00FFE81E000BFF2
:1057000000500040000C024400040242743D01209D
:10571000983D0120B03D0120500202400038014078
:105720000000024207F5D473A3F5D2731B681B680F
:10573000364A934265D107F5D473A3F5C4714FF08F
:1057400020024FF00003C1E9002307F5D473A3F54D
:10575000C4734FF4C0321A6707F12003184607F0EC
:105760001FF90346002B01D0FFF709F8284BD3F8A7
:105770009C30274A43F00073C2F89C30244BD3F886
:105780009C3003F0007207F5D473A3F5CE731A6052
:1057900007F5D473A3F5CE731B681D4BD3F88C307B
:1057A0001B4A43F00403C2F88C30194BD3F88C30F9
:1057B00003F0040207F5D473A3F5D0731A6007F55C
:1057C000D473A3F5D0731B68C023C7F894310223A8
:1057D000C7F898310023C7F89C310023C7F8A031DF
:1057E0000723C7F8A43107F5CA731946094805F01D
:1057F000EFFE00220021552001F075FD552001F03B
:105800008CFD00BF07F5D477BD4680BD0064004025
:10581000000C0244000802420D488546FFF71EFCBA
:105820000C480D490D4A002302E0D458C4500433FB
:10583000C4188C42F9D30A4A0A4C002301E01360D1
:105840000432A242FBD319F029FCFEF77BFEFEE7EF
:1058500000000A20000000207402002058480208BE
:1058600078020020DC570120FEE7000080B500AF81
:10587000032001F02DFD06F009FF02460C4B1B6AC8
:1058800003F00F030B49CB5C22FA03F30A4A1360BF
:10589000042001F085FD0F2000F010F80346002BD6
:1058A00001D0012302E0FFF73BF90023184680BD39
:1058B000000C02444C4302087400002080B584B000
:1058C00000AF78600023FB60334B1B78002B01D1C5
:1058D00001235CE0314B1B6803F00403042B0CD163
:1058E0002F4B1A682C4B1B7819464FF47A73B3FB75
:1058F000F1F3B2FBF3F3FB6037E001F0A9FDB86010
:10590000BB68022B23D0BB68022B2DD8BB68002BB1
:1059100003D0BB68012B0DD026E0214B1A681E4B2B
:105920001B7819464FF4FA53B3FBF1F3B2FBF3F3D0
:10593000FB601AE0184B1B781A464FF47A73B3FBDE
:10594000F2F34FF4FA42B2FBF3F3FB600DE0124BBB
:105950001B781A464FF47A73B3FBF2F34FF400420C
:10596000B2FBF3F3FB6000E000BFF86801F0F6FC67
:105970000346002B01D0012309E0002279684FF093
:10598000FF3001F0B0FC074A7B6813600023184623
:105990001037BD4680BD00BF7C00002010E000E055
:1059A000740000207800002080B400AF064B1B7804
:1059B0001A46064B1B681344044A136000BFBD46D9
:1059C0005DF8047B704700BF7C000020283E01206A
:1059D00080B400AF034B1B681846BD465DF8047BDE
:1059E000704700BF283E012080B584B000AF7860CA
:1059F000FFF7EEFFB8607B68FB60FB68B3F1FF3F29
:105A000005D00A4B1B781A46FB681344FB6000BFA5
:105A1000FFF7DEFF0246BB68D31AFA689A42F7D84E
:105A200000BF00BF1037BD4680BD00BF7C00002016
:105A300080B483B000AF786039607B689B6823F4E2
:105A40007C123B681A437B689A6000BF0C37BD46E6
:105A50005DF8047B704780B483B000AF7860396034
:105A60007B689B6823F0E0723B681A437B689A600E
:105A700000BF0C37BD465DF8047B704780B483B02F
:105A800000AF78607B689B6803F0E07318460C37C2
:105A9000BD465DF8047B704780B483B000AF78608A
:105AA0007B68D3F8C83043F001027B68C3F8C82094
:105AB00000BF0C37BD465DF8047B704780B483B0EF
:105AC00000AF7860064BD3F8C830054A43F00103B5
:105AD000C2F8C83000BF0C37BD465DF8047B704784
